{
  "_format": "hh3-artifact-1",
  "contractName": "NFTDonation",
  "sourceName": "contracts/NFTDonation.sol",
  "abi": [
    {
      "inputs": [],
      "stateMutability": "nonpayable",
      "type": "constructor"
    },
    {
      "inputs": [
        {
          "internalType": "address",
          "name": "sender",
          "type": "address"
        },
        {
          "internalType": "uint256",
          "name": "tokenId",
          "type": "uint256"
        },
        {
          "internalType": "address",
          "name": "owner",
          "type": "address"
        }
      ],
      "name": "ERC721IncorrectOwner",
      "type": "error"
    },
    {
      "inputs": [
        {
          "internalType": "address",
          "name": "operator",
          "type": "address"
        },
        {
          "internalType": "uint256",
          "name": "tokenId",
          "type": "uint256"
        }
      ],
      "name": "ERC721InsufficientApproval",
      "type": "error"
    },
    {
      "inputs": [
        {
          "internalType": "address",
          "name": "approver",
          "type": "address"
        }
      ],
      "name": "ERC721InvalidApprover",
      "type": "error"
    },
    {
      "inputs": [
        {
          "internalType": "address",
          "name": "operator",
          "type": "address"
        }
      ],
      "name": "ERC721InvalidOperator",
      "type": "error"
    },
    {
      "inputs": [
        {
          "internalType": "address",
          "name": "owner",
          "type": "address"
        }
      ],
      "name": "ERC721InvalidOwner",
      "type": "error"
    },
    {
      "inputs": [
        {
          "internalType": "address",
          "name": "receiver",
          "type": "address"
        }
      ],
      "name": "ERC721InvalidReceiver",
      "type": "error"
    },
    {
      "inputs": [
        {
          "internalType": "address",
          "name": "sender",
          "type": "address"
        }
      ],
      "name": "ERC721InvalidSender",
      "type": "error"
    },
    {
      "inputs": [
        {
          "internalType": "uint256",
          "name": "tokenId",
          "type": "uint256"
        }
      ],
      "name": "ERC721NonexistentToken",
      "type": "error"
    },
    {
      "inputs": [],
      "name": "ReentrancyGuardReentrantCall",
      "type": "error"
    },
    {
      "anonymous": false,
      "inputs": [
        {
          "indexed": true,
          "internalType": "address",
          "name": "owner",
          "type": "address"
        },
        {
          "indexed": true,
          "internalType": "address",
          "name": "approved",
          "type": "address"
        },
        {
          "indexed": true,
          "internalType": "uint256",
          "name": "tokenId",
          "type": "uint256"
        }
      ],
      "name": "Approval",
      "type": "event"
    },
    {
      "anonymous": false,
      "inputs": [
        {
          "indexed": true,
          "internalType": "address",
          "name": "owner",
          "type": "address"
        },
        {
          "indexed": true,
          "internalType": "address",
          "name": "operator",
          "type": "address"
        },
        {
          "indexed": false,
          "internalType": "bool",
          "name": "approved",
          "type": "bool"
        }
      ],
      "name": "ApprovalForAll",
      "type": "event"
    },
    {
      "anonymous": false,
      "inputs": [
        {
          "indexed": false,
          "internalType": "uint256",
          "name": "_fromTokenId",
          "type": "uint256"
        },
        {
          "indexed": false,
          "internalType": "uint256",
          "name": "_toTokenId",
          "type": "uint256"
        }
      ],
      "name": "BatchMetadataUpdate",
      "type": "event"
    },
    {
      "anonymous": false,
      "inputs": [
        {
          "indexed": true,
          "internalType": "address",
          "name": "donor",
          "type": "address"
        },
        {
          "indexed": true,
          "internalType": "uint256",
          "name": "tokenId",
          "type": "uint256"
        },
        {
          "indexed": false,
          "internalType": "uint256",
          "name": "amount",
          "type": "uint256"
        }
      ],
      "name": "DonationReceived",
      "type": "event"
    },
    {
      "anonymous": false,
      "inputs": [
        {
          "indexed": false,
          "internalType": "uint256",
          "name": "_tokenId",
          "type": "uint256"
        }
      ],
      "name": "MetadataUpdate",
      "type": "event"
    },
    {
      "anonymous": false,
      "inputs": [
        {
          "indexed": true,
          "internalType": "address",
          "name": "from",
          "type": "address"
        },
        {
          "indexed": true,
          "internalType": "address",
          "name": "to",
          "type": "address"
        },
        {
          "indexed": true,
          "internalType": "uint256",
          "name": "tokenId",
          "type": "uint256"
        }
      ],
      "name": "Transfer",
      "type": "event"
    },
    {
      "inputs": [
        {
          "internalType": "address",
          "name": "to",
          "type": "address"
        },
        {
          "internalType": "uint256",
          "name": "tokenId",
          "type": "uint256"
        }
      ],
      "name": "approve",
      "outputs": [],
      "stateMutability": "nonpayable",
      "type": "function"
    },
    {
      "inputs": [
        {
          "internalType": "address",
          "name": "owner",
          "type": "address"
        }
      ],
      "name": "balanceOf",
      "outputs": [
        {
          "internalType": "uint256",
          "name": "",
          "type": "uint256"
        }
      ],
      "stateMutability": "view",
      "type": "function"
    },
    {
      "inputs": [
        {
          "internalType": "uint256",
          "name": "tokenId",
          "type": "uint256"
        }
      ],
      "name": "donate",
      "outputs": [],
      "stateMutability": "payable",
      "type": "function"
    },
    {
      "inputs": [
        {
          "internalType": "uint256",
          "name": "tokenId",
          "type": "uint256"
        }
      ],
      "name": "getApproved",
      "outputs": [
        {
          "internalType": "address",
          "name": "",
          "type": "address"
        }
      ],
      "stateMutability": "view",
      "type": "function"
    },
    {
      "inputs": [
        {
          "internalType": "address",
          "name": "owner",
          "type": "address"
        },
        {
          "internalType": "address",
          "name": "operator",
          "type": "address"
        }
      ],
      "name": "isApprovedForAll",
      "outputs": [
        {
          "internalType": "bool",
          "name": "",
          "type": "bool"
        }
      ],
      "stateMutability": "view",
      "type": "function"
    },
    {
      "inputs": [
        {
          "internalType": "string",
          "name": "tokenURI",
          "type": "string"
        }
      ],
      "name": "mintNFT",
      "outputs": [
        {
          "internalType": "uint256",
          "name": "newTokenId",
          "type": "uint256"
        }
      ],
      "stateMutability": "nonpayable",
      "type": "function"
    },
    {
      "inputs": [],
      "name": "name",
      "outputs": [
        {
          "internalType": "string",
          "name": "",
          "type": "string"
        }
      ],
      "stateMutability": "view",
      "type": "function"
    },
    {
      "inputs": [
        {
          "internalType": "uint256",
          "name": "tokenId",
          "type": "uint256"
        }
      ],
      "name": "ownerOf",
      "outputs": [
        {
          "internalType": "address",
          "name": "",
          "type": "address"
        }
      ],
      "stateMutability": "view",
      "type": "function"
    },
    {
      "inputs": [
        {
          "internalType": "address",
          "name": "from",
          "type": "address"
        },
        {
          "internalType": "address",
          "name": "to",
          "type": "address"
        },
        {
          "internalType": "uint256",
          "name": "tokenId",
          "type": "uint256"
        }
      ],
      "name": "safeTransferFrom",
      "outputs": [],
      "stateMutability": "nonpayable",
      "type": "function"
    },
    {
      "inputs": [
        {
          "internalType": "address",
          "name": "from",
          "type": "address"
        },
        {
          "internalType": "address",
          "name": "to",
          "type": "address"
        },
        {
          "internalType": "uint256",
          "name": "tokenId",
          "type": "uint256"
        },
        {
          "internalType": "bytes",
          "name": "data",
          "type": "bytes"
        }
      ],
      "name": "safeTransferFrom",
      "outputs": [],
      "stateMutability": "nonpayable",
      "type": "function"
    },
    {
      "inputs": [
        {
          "internalType": "address",
          "name": "operator",
          "type": "address"
        },
        {
          "internalType": "bool",
          "name": "approved",
          "type": "bool"
        }
      ],
      "name": "setApprovalForAll",
      "outputs": [],
      "stateMutability": "nonpayable",
      "type": "function"
    },
    {
      "inputs": [
        {
          "internalType": "bytes4",
          "name": "interfaceId",
          "type": "bytes4"
        }
      ],
      "name": "supportsInterface",
      "outputs": [
        {
          "internalType": "bool",
          "name": "",
          "type": "bool"
        }
      ],
      "stateMutability": "view",
      "type": "function"
    },
    {
      "inputs": [],
      "name": "symbol",
      "outputs": [
        {
          "internalType": "string",
          "name": "",
          "type": "string"
        }
      ],
      "stateMutability": "view",
      "type": "function"
    },
    {
      "inputs": [
        {
          "internalType": "uint256",
          "name": "tokenId",
          "type": "uint256"
        }
      ],
      "name": "tokenURI",
      "outputs": [
        {
          "internalType": "string",
          "name": "",
          "type": "string"
        }
      ],
      "stateMutability": "view",
      "type": "function"
    },
    {
      "inputs": [
        {
          "internalType": "uint256",
          "name": "",
          "type": "uint256"
        }
      ],
      "name": "totalDonations",
      "outputs": [
        {
          "internalType": "uint256",
          "name": "",
          "type": "uint256"
        }
      ],
      "stateMutability": "view",
      "type": "function"
    },
    {
      "inputs": [],
      "name": "totalSupply",
      "outputs": [
        {
          "internalType": "uint256",
          "name": "",
          "type": "uint256"
        }
      ],
      "stateMutability": "view",
      "type": "function"
    },
    {
      "inputs": [
        {
          "internalType": "address",
          "name": "from",
          "type": "address"
        },
        {
          "internalType": "address",
          "name": "to",
          "type": "address"
        },
        {
          "internalType": "uint256",
          "name": "tokenId",
          "type": "uint256"
        }
      ],
      "name": "transferFrom",
      "outputs": [],
      "stateMutability": "nonpayable",
      "type": "function"
    }
  ],
  "bytecode": "0x608060405234801562000010575f80fd5b506040518060400160405280600c81526020017f4e465420446f6e6174696f6e00000000000000000000000000000000000000008152506040518060400160405280600681526020017f444f4e4154450000000000000000000000000000000000000000000000000000815250815f90816200008d919062000314565b5080600190816200009f919062000314565b5050506001600781905550620003f8565b5f81519050919050565b7f4e487b71000000000000000000000000000000000000000000000000000000005f52604160045260245ffd5b7f4e487b71000000000000000000000000000000000000000000000000000000005f52602260045260245ffd5b5f60028204905060018216806200012c57607f821691505b602082108103620001425762000141620000e7565b5b50919050565b5f819050815f5260205f209050919050565b5f6020601f8301049050919050565b5f82821b905092915050565b5f60088302620001a67fffffffffffffffffffffffffffffffffffffffffffffffffffffffffffffffff8262000169565b620001b2868362000169565b95508019841693508086168417925050509392505050565b5f819050919050565b5f819050919050565b5f620001fc620001f6620001f084620001ca565b620001d3565b620001ca565b9050919050565b5f819050919050565b6200021783620001dc565b6200022f620002268262000203565b84845462000175565b825550505050565b5f90565b6200024562000237565b620002528184846200020c565b505050565b5b8181101562000279576200026d5f826200023b565b60018101905062000258565b5050565b601f821115620002c857620002928162000148565b6200029d846200015a565b81016020851015620002ad578190505b620002c5620002bc856200015a565b83018262000257565b50505b505050565b5f82821c905092915050565b5f620002ea5f1984600802620002cd565b1980831691505092915050565b5f620003048383620002d9565b9150826002028217905092915050565b6200031f82620000b0565b67ffffffffffffffff8111156200033b576200033a620000ba565b5b62000347825462000114565b620003548282856200027d565b5f60209050601f8311600181146200038a575f841562000375578287015190505b620003818582620002f7565b865550620003f0565b601f1984166200039a8662000148565b5f5b82811015620003c3578489015182556001820191506020850194506020810190506200039c565b86831015620003e35784890151620003df601f891682620002d9565b8355505b6001600288020188555050505b505050505050565b6127b680620004065f395ff3fe6080604052600436106100fd575f3560e01c806370a0823111610094578063b88d4fde11610063578063b88d4fde1461034b578063c87b56dd14610373578063e985e9c5146103af578063f14faf6f146103eb578063fb37e88314610407576100fd565b806370a082311461028157806395d89b41146102bd5780639f1482e4146102e7578063a22cb46514610323576100fd565b806318160ddd116100d057806318160ddd146101cb57806323b872dd146101f557806342842e0e1461021d5780636352211e14610245576100fd565b806301ffc9a71461010157806306fdde031461013d578063081812fc14610167578063095ea7b3146101a3575b5f80fd5b34801561010c575f80fd5b5061012760048036038101906101229190611b18565b610443565b6040516101349190611b5d565b60405180910390f35b348015610148575f80fd5b506101516104a3565b60405161015e9190611c00565b60405180910390f35b348015610172575f80fd5b5061018d60048036038101906101889190611c53565b610532565b60405161019a9190611cbd565b60405180910390f35b3480156101ae575f80fd5b506101c960048036038101906101c49190611d00565b61054d565b005b3480156101d6575f80fd5b506101df610563565b6040516101ec9190611d4d565b60405180910390f35b348015610200575f80fd5b5061021b60048036038101906102169190611d66565b61056c565b005b348015610228575f80fd5b50610243600480360381019061023e9190611d66565b61066b565b005b348015610250575f80fd5b5061026b60048036038101906102669190611c53565b61068a565b6040516102789190611cbd565b60405180910390f35b34801561028c575f80fd5b506102a760048036038101906102a29190611db6565b61069b565b6040516102b49190611d4d565b60405180910390f35b3480156102c8575f80fd5b506102d1610751565b6040516102de9190611c00565b60405180910390f35b3480156102f2575f80fd5b5061030d60048036038101906103089190611c53565b6107e1565b60405161031a9190611d4d565b60405180910390f35b34801561032e575f80fd5b5061034960048036038101906103449190611e0b565b6107f6565b005b348015610356575f80fd5b50610371600480360381019061036c9190611f75565b61080c565b005b34801561037e575f80fd5b5061039960048036038101906103949190611c53565b610831565b6040516103a69190611c00565b60405180910390f35b3480156103ba575f80fd5b506103d560048036038101906103d09190611ff5565b61093c565b6040516103e29190611b5d565b60405180910390f35b61040560048036038101906104009190611c53565b6109ca565b005b348015610412575f80fd5b5061042d600480360381019061042891906120d1565b610b4b565b60405161043a9190611d4d565b60405180910390f35b5f634906490660e01b7bffffffffffffffffffffffffffffffffffffffffffffffffffffffff1916827bffffffffffffffffffffffffffffffffffffffffffffffffffffffff1916148061049c575061049b82610b81565b5b9050919050565b60605f80546104b190612145565b80601f01602080910402602001604051908101604052809291908181526020018280546104dd90612145565b80156105285780601f106104ff57610100808354040283529160200191610528565b820191905f5260205f20905b81548152906001019060200180831161050b57829003601f168201915b5050505050905090565b5f61053c82610c62565b5061054682610ce8565b9050919050565b61055f828261055a610d21565b610d28565b5050565b5f600854905090565b5f73ffffffffffffffffffffffffffffffffffffffff168273ffffffffffffffffffffffffffffffffffffffff16036105dc575f6040517f64a0ae920000000000000000000000000000000000000000000000000000000081526004016105d39190611cbd565b60405180910390fd5b5f6105ef83836105ea610d21565b610d3a565b90508373ffffffffffffffffffffffffffffffffffffffff168173ffffffffffffffffffffffffffffffffffffffff1614610665578382826040517f64283d7b00000000000000000000000000000000000000000000000000000000815260040161065c93929190612175565b60405180910390fd5b50505050565b61068583838360405180602001604052805f81525061080c565b505050565b5f61069482610c62565b9050919050565b5f8073ffffffffffffffffffffffffffffffffffffffff168273ffffffffffffffffffffffffffffffffffffffff160361070c575f6040517f89c62b640000000000000000000000000000000000000000000000000000000081526004016107039190611cbd565b60405180910390fd5b60035f8373ffffffffffffffffffffffffffffffffffffffff1673ffffffffffffffffffffffffffffffffffffffff1681526020019081526020015f20549050919050565b60606001805461076090612145565b80601f016020809104026020016040519081016040528092919081815260200182805461078c90612145565b80156107d75780601f106107ae576101008083540402835291602001916107d7565b820191905f5260205f20905b8154815290600101906020018083116107ba57829003601f168201915b5050505050905090565b6009602052805f5260405f205f915090505481565b610808610801610d21565b8383610f45565b5050565b61081784848461056c565b61082b610822610d21565b858585856110ae565b50505050565b606061083c82610c62565b505f60065f8481526020019081526020015f20805461085a90612145565b80601f016020809104026020016040519081016040528092919081815260200182805461088690612145565b80156108d15780601f106108a8576101008083540402835291602001916108d1565b820191905f5260205f20905b8154815290600101906020018083116108b457829003601f168201915b505050505090505f6108e161125a565b90505f8151036108f5578192505050610937565b5f825111156109295780826040516020016109119291906121e4565b60405160208183030381529060405292505050610937565b61093284611270565b925050505b919050565b5f60055f8473ffffffffffffffffffffffffffffffffffffffff1673ffffffffffffffffffffffffffffffffffffffff1681526020019081526020015f205f8373ffffffffffffffffffffffffffffffffffffffff1673ffffffffffffffffffffffffffffffffffffffff1681526020019081526020015f205f9054906101000a900460ff16905092915050565b6109d26112d6565b5f6109dc8261068a565b90505f3411610a20576040517f08c379a0000000000000000000000000000000000000000000000000000000008152600401610a1790612277565b60405180910390fd5b5f8173ffffffffffffffffffffffffffffffffffffffff1634604051610a45906122c2565b5f6040518083038185875af1925050503d805f8114610a7f576040519150601f19603f3d011682016040523d82523d5f602084013e610a84565b606091505b5050905080610ac8576040517f08c379a0000000000000000000000000000000000000000000000000000000008152600401610abf90612320565b60405180910390fd5b3460095f8581526020019081526020015f205f828254610ae8919061236b565b92505081905550823373ffffffffffffffffffffffffffffffffffffffff167f4b0304ab2f313234b1cea012339c8f8c3bf2c8bb357d81a579cfdb35d2e3d03034604051610b369190611d4d565b60405180910390a35050610b4861131c565b50565b5f60085f815480929190610b5e9061239e565b91905055506008549050610b723382611326565b610b7c8183611343565b919050565b5f7f80ac58cd000000000000000000000000000000000000000000000000000000007bffffffffffffffffffffffffffffffffffffffffffffffffffffffff1916827bffffffffffffffffffffffffffffffffffffffffffffffffffffffff19161480610c4b57507f5b5e139f000000000000000000000000000000000000000000000000000000007bffffffffffffffffffffffffffffffffffffffffffffffffffffffff1916827bffffffffffffffffffffffffffffffffffffffffffffffffffffffff1916145b80610c5b5750610c5a8261139d565b5b9050919050565b5f80610c6d83611406565b90505f73ffffffffffffffffffffffffffffffffffffffff168173ffffffffffffffffffffffffffffffffffffffff1603610cdf57826040517f7e273289000000000000000000000000000000000000000000000000000000008152600401610cd69190611d4d565b60405180910390fd5b80915050919050565b5f60045f8381526020019081526020015f205f9054906101000a900473ffffffffffffffffffffffffffffffffffffffff169050919050565b5f33905090565b610d35838383600161143f565b505050565b5f80610d4584611406565b90505f73ffffffffffffffffffffffffffffffffffffffff168373ffffffffffffffffffffffffffffffffffffffff1614610d8657610d858184866115fe565b5b5f73ffffffffffffffffffffffffffffffffffffffff168173ffffffffffffffffffffffffffffffffffffffff1614610e1157610dc55f855f8061143f565b600160035f8373ffffffffffffffffffffffffffffffffffffffff1673ffffffffffffffffffffffffffffffffffffffff1681526020019081526020015f205f82825403925050819055505b5f73ffffffffffffffffffffffffffffffffffffffff168573ffffffffffffffffffffffffffffffffffffffff1614610e9057600160035f8773ffffffffffffffffffffffffffffffffffffffff1673ffffffffffffffffffffffffffffffffffffffff1681526020019081526020015f205f82825401925050819055505b8460025f8681526020019081526020015f205f6101000a81548173ffffffffffffffffffffffffffffffffffffffff021916908373ffffffffffffffffffffffffffffffffffffffff160217905550838573ffffffffffffffffffffffffffffffffffffffff168273ffffffffffffffffffffffffffffffffffffffff167fddf252ad1be2c89b69c2b068fc378daa952ba7f163c4a11628f55a4df523b3ef60405160405180910390a4809150509392505050565b5f73ffffffffffffffffffffffffffffffffffffffff168273ffffffffffffffffffffffffffffffffffffffff1603610fb557816040517f5b08ba18000000000000000000000000000000000000000000000000000000008152600401610fac9190611cbd565b60405180910390fd5b8060055f8573ffffffffffffffffffffffffffffffffffffffff1673ffffffffffffffffffffffffffffffffffffffff1681526020019081526020015f205f8473ffffffffffffffffffffffffffffffffffffffff1673ffffffffffffffffffffffffffffffffffffffff1681526020019081526020015f205f6101000a81548160ff0219169083151502179055508173ffffffffffffffffffffffffffffffffffffffff168373ffffffffffffffffffffffffffffffffffffffff167f17307eab39ab6107e8899845ad3d59bd9653f200f220920489ca2b5937696c31836040516110a19190611b5d565b60405180910390a3505050565b5f8373ffffffffffffffffffffffffffffffffffffffff163b1115611253578273ffffffffffffffffffffffffffffffffffffffff1663150b7a02868685856040518563ffffffff1660e01b815260040161110c9493929190612437565b6020604051808303815f875af192505050801561114757506040513d601f19601f820116820180604052508101906111449190612495565b60015b6111c8573d805f8114611175576040519150601f19603f3d011682016040523d82523d5f602084013e61117a565b606091505b505f8151036111c057836040517f64a0ae920000000000000000000000000000000000000000000000000000000081526004016111b79190611cbd565b60405180910390fd5b805160208201fd5b63150b7a0260e01b7bffffffffffffffffffffffffffffffffffffffffffffffffffffffff1916817bffffffffffffffffffffffffffffffffffffffffffffffffffffffff19161461125157836040517f64a0ae920000000000000000000000000000000000000000000000000000000081526004016112489190611cbd565b60405180910390fd5b505b5050505050565b606060405180602001604052805f815250905090565b606061127b82610c62565b505f61128561125a565b90505f8151116112a35760405180602001604052805f8152506112ce565b806112ad846116c1565b6040516020016112be9291906121e4565b6040516020818303038152906040525b915050919050565b600260075403611312576040517f3ee5aeb500000000000000000000000000000000000000000000000000000000815260040160405180910390fd5b6002600781905550565b6001600781905550565b61133f828260405180602001604052805f81525061178b565b5050565b8060065f8481526020019081526020015f209081611361919061265d565b507ff8e1a15aba9398e019f0b49df1a4fde98ee17ae345cb5f6b5e2c27f5033e8ce7826040516113919190611d4d565b60405180910390a15050565b5f7f01ffc9a7000000000000000000000000000000000000000000000000000000007bffffffffffffffffffffffffffffffffffffffffffffffffffffffff1916827bffffffffffffffffffffffffffffffffffffffffffffffffffffffff1916149050919050565b5f60025f8381526020019081526020015f205f9054906101000a900473ffffffffffffffffffffffffffffffffffffffff169050919050565b808061147757505f73ffffffffffffffffffffffffffffffffffffffff168273ffffffffffffffffffffffffffffffffffffffff1614155b156115a9575f61148684610c62565b90505f73ffffffffffffffffffffffffffffffffffffffff168373ffffffffffffffffffffffffffffffffffffffff16141580156114f057508273ffffffffffffffffffffffffffffffffffffffff168173ffffffffffffffffffffffffffffffffffffffff1614155b80156115035750611501818461093c565b155b1561154557826040517fa9fbf51f00000000000000000000000000000000000000000000000000000000815260040161153c9190611cbd565b60405180910390fd5b81156115a757838573ffffffffffffffffffffffffffffffffffffffff168273ffffffffffffffffffffffffffffffffffffffff167f8c5be1e5ebec7d5bd14f71427d1e84f3dd0314c0f7b2291e5b200ac8c7c3b92560405160405180910390a45b505b8360045f8581526020019081526020015f205f6101000a81548173ffffffffffffffffffffffffffffffffffffffff021916908373ffffffffffffffffffffffffffffffffffffffff16021790555050505050565b6116098383836117ae565b6116bc575f73ffffffffffffffffffffffffffffffffffffffff168373ffffffffffffffffffffffffffffffffffffffff160361167d57806040517f7e2732890000000000000000000000000000000000000000000000000000000081526004016116749190611d4d565b60405180910390fd5b81816040517f177e802f0000000000000000000000000000000000000000000000000000000081526004016116b392919061272c565b60405180910390fd5b505050565b60605f60016116cf8461186e565b0190505f8167ffffffffffffffff8111156116ed576116ec611e51565b5b6040519080825280601f01601f19166020018201604052801561171f5781602001600182028036833780820191505090505b5090505f82602083010190505b600115611780578080600190039150507f3031323334353637383961626364656600000000000000000000000000000000600a86061a8153600a858161177557611774612753565b5b0494505f850361172c575b819350505050919050565b61179583836119bf565b6117a96117a0610d21565b5f8585856110ae565b505050565b5f8073ffffffffffffffffffffffffffffffffffffffff168373ffffffffffffffffffffffffffffffffffffffff161415801561186557508273ffffffffffffffffffffffffffffffffffffffff168473ffffffffffffffffffffffffffffffffffffffff1614806118265750611825848461093c565b5b8061186457508273ffffffffffffffffffffffffffffffffffffffff1661184c83610ce8565b73ffffffffffffffffffffffffffffffffffffffff16145b5b90509392505050565b5f805f90507a184f03e93ff9f4daa797ed6e38ed64bf6a1f01000000000000000083106118ca577a184f03e93ff9f4daa797ed6e38ed64bf6a1f01000000000000000083816118c0576118bf612753565b5b0492506040810190505b6d04ee2d6d415b85acef81000000008310611907576d04ee2d6d415b85acef810000000083816118fd576118fc612753565b5b0492506020810190505b662386f26fc10000831061193657662386f26fc10000838161192c5761192b612753565b5b0492506010810190505b6305f5e100831061195f576305f5e100838161195557611954612753565b5b0492506008810190505b612710831061198457612710838161197a57611979612753565b5b0492506004810190505b606483106119a7576064838161199d5761199c612753565b5b0492506002810190505b600a83106119b6576001810190505b80915050919050565b5f73ffffffffffffffffffffffffffffffffffffffff168273ffffffffffffffffffffffffffffffffffffffff1603611a2f575f6040517f64a0ae92000000000000000000000000000000000000000000000000000000008152600401611a269190611cbd565b60405180910390fd5b5f611a3b83835f610d3a565b90505f73ffffffffffffffffffffffffffffffffffffffff168173ffffffffffffffffffffffffffffffffffffffff1614611aad575f6040517f73c6ac6e000000000000000000000000000000000000000000000000000000008152600401611aa49190611cbd565b60405180910390fd5b505050565b5f604051905090565b5f80fd5b5f80fd5b5f7fffffffff0000000000000000000000000000000000000000000000000000000082169050919050565b611af781611ac3565b8114611b01575f80fd5b50565b5f81359050611b1281611aee565b92915050565b5f60208284031215611b2d57611b2c611abb565b5b5f611b3a84828501611b04565b91505092915050565b5f8115159050919050565b611b5781611b43565b82525050565b5f602082019050611b705f830184611b4e565b92915050565b5f81519050919050565b5f82825260208201905092915050565b5f5b83811015611bad578082015181840152602081019050611b92565b5f8484015250505050565b5f601f19601f8301169050919050565b5f611bd282611b76565b611bdc8185611b80565b9350611bec818560208601611b90565b611bf581611bb8565b840191505092915050565b5f6020820190508181035f830152611c188184611bc8565b905092915050565b5f819050919050565b611c3281611c20565b8114611c3c575f80fd5b50565b5f81359050611c4d81611c29565b92915050565b5f60208284031215611c6857611c67611abb565b5b5f611c7584828501611c3f565b91505092915050565b5f73ffffffffffffffffffffffffffffffffffffffff82169050919050565b5f611ca782611c7e565b9050919050565b611cb781611c9d565b82525050565b5f602082019050611cd05f830184611cae565b92915050565b611cdf81611c9d565b8114611ce9575f80fd5b50565b5f81359050611cfa81611cd6565b92915050565b5f8060408385031215611d1657611d15611abb565b5b5f611d2385828601611cec565b9250506020611d3485828601611c3f565b9150509250929050565b611d4781611c20565b82525050565b5f602082019050611d605f830184611d3e565b92915050565b5f805f60608486031215611d7d57611d7c611abb565b5b5f611d8a86828701611cec565b9350506020611d9b86828701611cec565b9250506040611dac86828701611c3f565b9150509250925092565b5f60208284031215611dcb57611dca611abb565b5b5f611dd884828501611cec565b91505092915050565b611dea81611b43565b8114611df4575f80fd5b50565b5f81359050611e0581611de1565b92915050565b5f8060408385031215611e2157611e20611abb565b5b5f611e2e85828601611cec565b9250506020611e3f85828601611df7565b9150509250929050565b5f80fd5b5f80fd5b7f4e487b71000000000000000000000000000000000000000000000000000000005f52604160045260245ffd5b611e8782611bb8565b810181811067ffffffffffffffff82111715611ea657611ea5611e51565b5b80604052505050565b5f611eb8611ab2565b9050611ec48282611e7e565b919050565b5f67ffffffffffffffff821115611ee357611ee2611e51565b5b611eec82611bb8565b9050602081019050919050565b828183375f83830152505050565b5f611f19611f1484611ec9565b611eaf565b905082815260208101848484011115611f3557611f34611e4d565b5b611f40848285611ef9565b509392505050565b5f82601f830112611f5c57611f5b611e49565b5b8135611f6c848260208601611f07565b91505092915050565b5f805f8060808587031215611f8d57611f8c611abb565b5b5f611f9a87828801611cec565b9450506020611fab87828801611cec565b9350506040611fbc87828801611c3f565b925050606085013567ffffffffffffffff811115611fdd57611fdc611abf565b5b611fe987828801611f48565b91505092959194509250565b5f806040838503121561200b5761200a611abb565b5b5f61201885828601611cec565b925050602061202985828601611cec565b9150509250929050565b5f67ffffffffffffffff82111561204d5761204c611e51565b5b61205682611bb8565b9050602081019050919050565b5f61207561207084612033565b611eaf565b90508281526020810184848401111561209157612090611e4d565b5b61209c848285611ef9565b509392505050565b5f82601f8301126120b8576120b7611e49565b5b81356120c8848260208601612063565b91505092915050565b5f602082840312156120e6576120e5611abb565b5b5f82013567ffffffffffffffff81111561210357612102611abf565b5b61210f848285016120a4565b91505092915050565b7f4e487b71000000000000000000000000000000000000000000000000000000005f52602260045260245ffd5b5f600282049050600182168061215c57607f821691505b60208210810361216f5761216e612118565b5b50919050565b5f6060820190506121885f830186611cae565b6121956020830185611d3e565b6121a26040830184611cae565b949350505050565b5f81905092915050565b5f6121be82611b76565b6121c881856121aa565b93506121d8818560208601611b90565b80840191505092915050565b5f6121ef82856121b4565b91506121fb82846121b4565b91508190509392505050565b7f446f6e6174696f6e206d7573742062652067726561746572207468616e207a655f8201527f726f000000000000000000000000000000000000000000000000000000000000602082015250565b5f612261602283611b80565b915061226c82612207565b604082019050919050565b5f6020820190508181035f83015261228e81612255565b9050919050565b5f81905092915050565b50565b5f6122ad5f83612295565b91506122b88261229f565b5f82019050919050565b5f6122cc826122a2565b9150819050919050565b7f446f6e6174696f6e207472616e73666572206661696c656400000000000000005f82015250565b5f61230a601883611b80565b9150612315826122d6565b602082019050919050565b5f6020820190508181035f830152612337816122fe565b9050919050565b7f4e487b71000000000000000000000000000000000000000000000000000000005f52601160045260245ffd5b5f61237582611c20565b915061238083611c20565b92508282019050808211156123985761239761233e565b5b92915050565b5f6123a882611c20565b91507fffffffffffffffffffffffffffffffffffffffffffffffffffffffffffffffff82036123da576123d961233e565b5b600182019050919050565b5f81519050919050565b5f82825260208201905092915050565b5f612409826123e5565b61241381856123ef565b9350612423818560208601611b90565b61242c81611bb8565b840191505092915050565b5f60808201905061244a5f830187611cae565b6124576020830186611cae565b6124646040830185611d3e565b818103606083015261247681846123ff565b905095945050505050565b5f8151905061248f81611aee565b92915050565b5f602082840312156124aa576124a9611abb565b5b5f6124b784828501612481565b91505092915050565b5f819050815f5260205f209050919050565b5f6020601f8301049050919050565b5f82821b905092915050565b5f6008830261251c7fffffffffffffffffffffffffffffffffffffffffffffffffffffffffffffffff826124e1565b61252686836124e1565b95508019841693508086168417925050509392505050565b5f819050919050565b5f61256161255c61255784611c20565b61253e565b611c20565b9050919050565b5f819050919050565b61257a83612547565b61258e61258682612568565b8484546124ed565b825550505050565b5f90565b6125a2612596565b6125ad818484612571565b505050565b5b818110156125d0576125c55f8261259a565b6001810190506125b3565b5050565b601f821115612615576125e6816124c0565b6125ef846124d2565b810160208510156125fe578190505b61261261260a856124d2565b8301826125b2565b50505b505050565b5f82821c905092915050565b5f6126355f198460080261261a565b1980831691505092915050565b5f61264d8383612626565b9150826002028217905092915050565b61266682611b76565b67ffffffffffffffff81111561267f5761267e611e51565b5b6126898254612145565b6126948282856125d4565b5f60209050601f8311600181146126c5575f84156126b3578287015190505b6126bd8582612642565b865550612724565b601f1984166126d3866124c0565b5f5b828110156126fa578489015182556001820191506020850194506020810190506126d5565b868310156127175784890151612713601f891682612626565b8355505b6001600288020188555050505b505050505050565b5f60408201905061273f5f830185611cae565b61274c6020830184611d3e565b9392505050565b7f4e487b71000000000000000000000000000000000000000000000000000000005f52601260045260245ffdfea26469706673582212204d3a6030678d3f6812f857bdfa2a28085e476faa92089c17933dfa6c267cacc264736f6c63430008140033",
  "linkReferences": {},
  "deployedLinkReferences": {},
  "immutableReferences": {},
  "inputSourceName": "project/contracts/NFTDonation.sol",
  "buildInfoId": "solc-0_8_20-99e16f423a04e7435b9dbe3a78d77f2805f72604"
}